:020000040800F2
:1000000078070020590A00086D0200086F020008F6
:1000100073020008770200087B020008000000005D
:100020000000000000000000000000007F02000847
:100030008102000800000000830200088502000819
:10004000730A0008730A0008730A0008730A00089C
:10005000730A0008730A0008730A0008730A00088C
:10006000730A0008730A0008730A0008730A00087C
:10007000730A0008730A0008730A0008730A00086C
:10008000730A0008730A0008730A0008730A00085C
:10009000730A0008730A0008730A0008730A00084C
:1000A000730A0008730A0008730A0008730A00083C
:1000B000730A0008730A0008730A0008730A00082C
:1000C000730A0008730A0008730A0008730A00081C
:1000D000730A000807050008730A0008730A00087D
:1000E000730A0008730A0008730A0008730A0008FC
:1000F000730A0008730A0008730A0008730A0008EC
:10010000730A0008730A0008730A0008730A0008DB
:10011000730A0008730A0008730A0008730A0008CB
:10012000730A0008730A0008730A0008730A0008BB
:1001300000F002F800F042F80AA090E8000C8244B7
:100140008344AAF10107DA4501D100F037F8AFF294
:10015000090EBAE80F0013F0010F18BFFB1A43F0A5
:1001600001031847601A0000801A0000103A24BFEB
:1001700078C878C1FAD8520724BF30C830C144BF0C
:1001800004680C607047000000230024002500264E
:10019000103A28BF78C1FBD8520728BF30C148BFEA
:1001A0000B607047642901F0FF83632901F09F848D
:1001B000002070471FB51FBD10B510BD01F0D2FC67
:1001C0001146FFF7F7FF00F009F801F0F0FC03B467
:1001D000FFF7F2FF03BC00F0CDFB000000BF00BF43
:1001E00000BF00F05DFB4FF4A06000F055FC4FF441
:1001F000E13000F0CEFB00F037F92C23104A114912
:10020000114800F057F9012240210E48001F01F06B
:1002100089F8002412E00DA001F05CFB601C84B2A0
:100220000A2000F07AFB142C08D10F48006808B9A6
:10023000012000E000200C4908600024EBE70000EA
:100240006400002004380140580002400D0A204498
:100250004D412044415441205265636569766520D3
:10026000426567696E0D0A0094812142704700BFA4
:10027000FEE700BFFEE700BFFEE700BFFEE77047F6
:1002800070477047704700000CB500200190009047
:100290006C48006840F480306A49086000BF6948D3
:1002A000006800F4003000900198401C0190009814
:1002B00018B90198B0F5A06FF1D16248006800F458
:1002C000003010B10120009001E000200090009863
:1002D000012843D15C48006840F010005A4908608A
:1002E0000846006820F0030008600846006840F0F7
:1002F0000200086053484068524948600846406818
:1003000048600846406840F480604860084640689D
:1003100020F47C1048600846406840F4E8104860CB
:100320000846006840F08070086000BF45480068DB
:1003300000F000700028F9D04248406820F0030027
:10034000404948600846406840F00200486000BFED
:100350003C48406800F00C000828F9D10CBD10B5ED
:10036000FFF792FF10BD10B53648006840F001005D
:1003700034490860084640683449084031494860BB
:1003800008460068324908402E490860084600685F
:1003900020F4802008600846406820F4FE00486091
:1003A0004FF41F008860FFF7DAFF4FF00060294923
:1003B000086010BD10B5002100200022214B5B68B1
:1003C00003F00C0121B1042906D0082928D107E047
:1003D000214B224C236027E01F4B204C236023E05D
:1003E000184B5B6803F47010164B5B6803F48032A3
:1003F000022303EB904022B9194B4343174C23606F
:100400000DE0104B5B6803F4003323B1144B4343FE
:10041000124C236003E0104B4343104C236003E075
:100420000D4B0E4C236000BF00BF064B5B68C3F34F
:1004300003130C4CE15C094B1B68CB40074C236059
:1004400010BD000000100240002002400000FFF834
:10045000FFFFF6FE08ED00E000127A000000002029
:1004600000093D000400002008B50121482001F0EA
:10047000CBF92020ADF8000010208DF803000320F8
:100480008DF802006946094800F0FEFC202107486B
:1004900000F0A7FD2020ADF800006946044800F0F8
:1004A000F3FC2021024800F09CFD08BD000C014037
:1004B000001801402DE9F04107460D4616461C463E
:1004C0000121084601F093F9384600F053FB8D48AE
:1004D00004808D480560466000208B49886008468E
:1004E000C460002008618020486100208861C861E4
:1004F00008624FF48050486200208862384600F05D
:10050000DBFBBDE8F08170B5002640F224417F4856
:1005100000F0C8FF00287DD07C4800887B48001D83
:10052000008800217A4800F0F2FB794800F006FCD0
:10053000C0F12C00C6B27748007850B9764C2C2018
:1005400073495839C8657548486601207149087073
:1005500009E0724C2C206E495839C8656E484866CF
:1005600000206C4908700121694800F0D0FB6CA0A4
:1005700001F0B0F9162E79D120785328FBD1607D97
:100580004528F8D16B480068401C6A490860012082
:10059000694908702078694908706078A17800EB93
:1005A000012000B266490880E078217900EB012043
:1005B00000B2634948806079A17900EB012000B264
:1005C0005F498880607BA17B00EB012005B2B620EB
:1005D00095FBF0F000B25B490880E07B217C00EBEA
:1005E000012005B2B62095FBF0F000B255494880D5
:1005F000E07C55490880207D54490880607D54493D
:10060000087054A001F066F94C48017855A001F03B
:1006100061F900E066E04A48B0F9001057A001F027
:1006200059F94748B0F9021058A001F053F944486D
:10063000B0F9041059A001F04DF94248B0F900108A
:100640005AA001F047F93F48B0F902105BA001F051
:1006500041F93D4801885DA001F03CF93B48018823
:100660005FA001F037F93A48017800E035E062A078
:1006700001F030F96548016865A001F02BF93048B8
:10068000B0F900106AA001F025F92D49B1F9001068
:100690005E4A1268501A002801DB014600E0414220
:1006A000B1F5C87F03DD67A001F014F902E068A08E
:1006B00001F010F90021164800F029FB2048B0F99C
:1006C0000000524908600846016865A001F002F97F
:1006D0004FF4967000F021F904E06A480068401C6D
:1006E000684908604FF45A71084800F0DBFE38B1E1
:1006F00065A001F0EFF84FF45A71044800F0FCFED9
:1007000070BD000040000020E800002000380140DB
:10071000580002401400002090000020BC0000207F
:10072000474554204441544120414741494E200A05
:1007300000000000380000201C00002032000020D3
:10074000240000202A000020340000203600002071
:100750003300002054455354204F55545055540DE8
:100760000A000000544553542073746172745F662C
:100770006C61673A2025630D0A000000582DBDC743
:10078000CBD9B6C83A202025640D0A00592DBDC723
:10079000CBD9B6C83A202025640D0A005A2DBDC712
:1007A000CBD9B6C83A202025640D0A00582DBDC704
:1007B000B6C83A202025640D0A000000592DBDC797
:1007C000B6C83A202025640D0A0000005445535451
:1007D000206F6E655F666C61673A2025640D0A00C4
:1007E0005445535420636865636B5F73756D3A209D
:1007F00025640D0A000000005445535420656E64C2
:100800005F666C61673A2025630D0A0018000020BE
:1008100074656D705F785F617869735F616E676C36
:10082000657370656564203A2025640A0000000045
:10083000616E676C655370656564203A2025640AB3
:10084000000000006B6E6F636B212121200A000005
:10085000736166652073746174757320200A0000EB
:1008600074656D705F785F617869735F616E676CE6
:100870006573706565645F7365636F6E64203A20AD
:1008800025640A003C000020555341525420436C1B
:10089000656172495450656E64696E67426974009F
:1008A00010B56FF0040000F046F92E4800682E499C
:1008B000B0FBF1F02D4908700846007800EB4001CC
:1008C000C1EBC0104FF6FF7101EAC0002849088053
:1008D00010BD0146254A12784A434FF0E0235A6181
:1008E00000229A611A46126942F001021A6100BFA1
:1008F0004FF0E022106900F001021AB100F48032DA
:10090000002AF5D04FF0E022126922F001024FF0E8
:10091000E0231A6100229A6170470146144A128846
:100920004A434FF0E0235A6100229A611A46126945
:1009300042F001021A6100BF4FF0E022106900F09E
:1009400001021AB100F48032002AF5D04FF0E02203
:10095000126922F001024FF0E0231A6100229A612D
:10096000704700000000002000127A0042000020C2
:1009700044000020014600BF704700BF344A12887F
:1009800002F04002002AF9D0C2B2314B1B1D1A807E
:10099000704710B586B00446012144F2040000F00F
:1009A00033FF4FF40070ADF8140003208DF81600EB
:1009B00018208DF8170005A9264800F065FA4FF4B5
:1009C0008060ADF8140004208DF8170005A92148B7
:1009D00000F05AFA25208DF8000003208DF8010060
:1009E0008DF8020001208DF80300684600F059F8E8
:1009F00001940020ADF80800ADF80A00ADF80C0035
:100A0000ADF810000C20ADF80E00002240F2266177
:100A10000F4800F062FC002240F225510C4800F023
:100A20005CFC012240F22441094800F056FC01A977
:100A3000074800F0BAFB012240F22551044800F0BB
:100A40004CFC0121024800F03CFC06B010BD000047
:100A50000038014000080140094880470948004724
:100A6000FEE7FEE7FEE7FEE7FEE7FEE7FEE7FEE75E
:100A7000FEE7FEE704480549054A064B70470000BB
:100A80006703000831010008780100207807002082
:100A9000780300207803002031490143314A116076
:100AA000704770B5002100230F22C47804B32D4C89
:100AB000246804F4E064C4F5E064210AC1F104038D
:100AC000CA40447804FA03F18478144021430901B0
:100AD000254C0678A155047804F01F050124AC408C
:100AE00005786D11AD0005F1E025C5F8004109E07C
:100AF000047804F01F050124AC401C4D06787611E3
:100B000045F8264070BD1A4A0A400243154B1B1F88
:100B10001A60704739B1134A121D12680243114B13
:100B20001B1D1A6006E00F4A121D126882430D4B0E
:100B30001B1D1A607047042808D14FF0E021096995
:100B400041F004014FF0E022116107E04FF0E02195
:100B5000096921F004014FF0E022116170470000A3
:100B60000000FA050CED00E000E400E080E100E0A8
:100B700080FFFF1F01684FF6FE72114001600021E7
:100B8000016041608160C1608D49884208D18C4913
:100B90000839496841F00F01894A083A51608AE0F2
:100BA00087491431884208D185490839496841F09C
:100BB000F001834A083A51607DE08149283188423A
:100BC00008D17F490839496841F470617C4A083A84
:100BD000516070E07A493C31884208D1784908393F
:100BE000496841F47041764A083A516063E07449BB
:100BF0005031884208D172490839496841F470215E
:100C00006F4A083A516056E06D496431884208D114
:100C10006B490839496841F47001694A083A5160E2
:100C200049E067497831884208D1654908394968FF
:100C300041F07061624A083A51603CE06149884283
:100C400006D1011F096841F00F01021F116032E057
:100C50005C491431884208D15A49091F096841F09A
:100C6000F001584A121F116025E056492831884288
:100C700008D15449091F096841F47061514A121F93
:100C8000116018E04F493C31884208D14D49091F95
:100C9000096841F470414B4A121F11600BE0494949
:100CA0005031884207D14749091F096841F4702132
:100CB000444A121F1160704710B50022026847F6BF
:100CC000F0739A430C6A8B6823430C6923434C6985
:100CD00023438C692343CC6923434C6A23438C6AA6
:100CE00023431A430260CB6843600B6883604B6800
:100CF000C36010BD0021016041608160C16001617D
:100D000041618161C161016241628162704721B1CB
:100D1000026842F00102026004E002684FF6FE73CE
:100D20001A40026070471AB103680B43036002E087
:100D300003688B4303607047416070470146486811
:100D400080B2704701460020002201F080531BB1A1
:100D50001C4B083B1A6802E0194B083B1A6802EA70
:100D600001030BB1012000E00020704700F080512A
:100D700019B11449091F086002E011490839486097
:100D8000704701460020002201F080531BB10D4B3B
:100D9000083B1A6802E00A4B083B1A6802EA0103A2
:100DA0000BB1012000E00020704700F0805119B124
:100DB0000449091F086002E001490839486070478A
:100DC000080002400804024010B50446CC488442A2
:100DD00008D10121042000F031FD0021042000F0A1
:100DE0002DFD46E0C748844208D10121082000F0CB
:100DF00025FD0021082000F021FD3AE0C248844290
:100E000008D10121102000F019FD0021102000F070
:100E100015FD2EE0BD48844208D10121202000F0BC
:100E20000DFD0021202000F009FD22E0B848844299
:100E300008D10121402000F001FD0021402000F0F8
:100E4000FDFC16E0B348844208D10121802000F067
:100E5000F5FC0021802000F0F1FC0AE0AE4884425D
:100E600007D10121801500F0E9FC0021A01500F058
:100E7000E5FC10BD10B50121084600F0DFFC0021A3
:100E8000012000F0DBFC10BD2DE9F04102460025F9
:100E90000026002000230024002791F803C00CF056
:100EA0000F0591F803C00CF0100CBCF1000F03D03B
:100EB00091F802C04CEA050591F800C0BCF1000FA2
:100EC00031D0146800202BE04FF0010C0CFA00F335
:100ED000B1F800C00CEA03069E4220D183004FF017
:100EE0000F0C0CFA03F7BC4305FA03FC4CEA0404AC
:100EF00091F803C0BCF1280F06D14FF0010C0CFA99
:100F000000FCC2F814C00AE091F803C0BCF1480F1D
:100F100005D14FF0010C0CFA00FCC2F810C0401CC7
:100F20000828D1D31460B1F800C0BCF1FF0F34DD44
:100F3000546800202EE000F1080C4FF0010808FA78
:100F40000CF3B1F800C00CEA03069E4221D18300E5
:100F50004FF00F0C0CFA03F7BC4305FA03FC4CEA04
:100F6000040491F803C0BCF1280F05D100F1080C6E
:100F700008FA0CF8C2F8148091F803C0BCF1480FCD
:100F800007D100F1080C4FF0010808FA0CF8C2F87C
:100F90001080401C0828CED35460BDE8F0814FF685
:100FA000FF710180022181700421C17070470246E7
:100FB000002093680B400BB1012000E00020704737
:100FC0000146886880B2704702460020D3680B4013
:100FD0000BB1012000E0002070470146C86880B2D4
:100FE000704701617047416170470AB1016100E0DB
:100FF00041617047C16070474FF480320A4382619B
:101000008161826182698269704702460020434B98
:1010100018684FF68073184040EA021008433F4BAF
:10102000186070473E49C8617047F0B50A46002312
:1010300000240021002500F00046B6F1004F02D147
:10104000364EF16901E0354E7168C0F3034583B255
:1010500000F44016B6F5401F08D121F070612F4E04
:10106000766826F070662D4F7E6012E000F48016E0
:10107000B6F5801F06D1032606FA05F4A14341F018
:10108000706106E0460D360103FA06F6B14341F001
:10109000706122B1460D360103FA06F6314300F0C5
:1010A0000046B6F1004F02D11C4EF16101E01B4E2B
:1010B0007160F0BD30B500228B071C0F0F2303FABF
:1010C00004F2164B08338C1053F824309343134C1E
:1010D00008348D1044F8253023468C1053F8243002
:1010E0008C07240F00FA04F423430C4C08348D10B1
:1010F00044F8253030BD0A49DC31086070470000F3
:1011000000080140000C01400010014000140140A3
:1011100000180140001C0140002001400000014077
:101120000000204210B50446FB48844209D1012149
:10113000880300F083FB00214FF4804000F07EFB29
:1011400032E0F648844209D10121480400F083FBD3
:1011500000214FF4003000F07EFB25E0F04884428F
:1011600009D10121880400F076FB00214FF4802092
:1011700000F071FB18E0EB48844209D10121C8045A
:1011800000F069FB00214FF4002000F064FB0BE04D
:10119000E548844208D10121080500F05CFB0021EC
:1011A0004FF4801000F057FB10BD2DE9F04786B0DA
:1011B00005460E460024A24600BFA1460027B0897E
:1011C00000B100BF2F462C8A4CF6FF700440F08817
:1011D00004432C82AC894EF6F3100440B088318968
:1011E0000843718908430443AC81AC8A4FF6FF4041
:1011F0000440B0890443AC8201A800F098FAC648C4
:10120000874202D1DDF810A001E0DDF80CA0A8892A
:1012100000F4004040B10AEBCA0000EB0A1031684C
:101220004900B0FBF1F807E00AEBCA0000EB0A1036
:1012300031688900B0FBF1F86420B8FBF0F00401DC
:101240002009642101FB1089A88900F4004040B105
:10125000322000EBC900B0FBF1F000F007000443BE
:1012600008E0322000EB09106421B0FBF1F000F03F
:101270000F0004432C8106B0BDE8F0874FF41651EF
:10128000016000218180C18001810C214181002108
:101290008181704710B502460020108A4FF2FF038B
:1012A00018400B884C8823438C882343CC882343E5
:1012B0001843108210BD0021018041808180C180CF
:1012C000704721B1828942F40052828104E0828910
:1012D0004DF6FF731A4082817047F0B50346002433
:1012E00000260025002040F66A17B94200D100BF51
:1012F0001846C1F3421401F01F06012707FA06F54C
:10130000012C01D10C3004E0022C01D1103000E09E
:1013100014301AB107682F43076002E00768AF4333
:101320000760F0BD1AB1838A0B43838202E0838A8F
:101330008B4383827047028A4FF6F0731A40028211
:10134000028A0A430282704782894FF2FF731A4071
:10135000828182890A438281704721B1828942F069
:101360000202828104E082894FF6FD731A40828175
:101370007047028A4FF6DF731A400282028A0A43DC
:101380000282704721B1028A42F48042028204E064
:10139000028A4BF6FF731A4002827047C1F30802BB
:1013A0008280704701468888C0F3080070478189B1
:1013B00041F0010181817047028BD2B20283028B1E
:1013C00042EA012202837047028B02F47F420283C9
:1013D000028B0A430283704721B1828A42F02002C5
:1013E000828204E0828A4FF6DF731A40828270475D
:1013F00021B1828A42F01002828204E0828A4FF692
:10140000EF731A408282704721B1828A42F008024B
:10141000828204E0828A4FF6F7731A408282704714
:1014200021B1828942F40042828103E08289C2F3C1
:101430000E028281704721B1828A42F40062828268
:1014400004E0828A4FF2FF731A4082827047828AD8
:101450004FF6FB731A408282828A0A438282704767
:1014600021B1828A42F00202828204E0828A4FF62F
:10147000FD731A408282704702460020B1F5007F5A
:1014800000D100BF13880B400BB1012000E0002009
:10149000704701F40072B2F5007F00D100BFCA436B
:1014A0000280704770B5024600240023002500200A
:1014B00040F66A16B14200D100BFC1F3421501F0F7
:1014C0001F03012606FA03F3012D02D1968933404A
:1014D00006E0022D02D1168A334001E0968A33409D
:1014E0000C12012606FA04F41688344013B10CB12C
:1014F000012000E0002070BD10B50022002340F65E
:101500006A14A14200D100BF0A1201249440A3B280
:10151000DC43048010BD000000380140004400405E
:1015200000480040004C004000500040DF48006888
:1015300040F00100DD49086008464068DC49084089
:10154000DA49486008460068DA490840D749086027
:101550000846006820F4802008600846406820F4AF
:10156000FE0048604FF41F0088607047CF4909684B
:1015700021F48031CD4A11601146096821F480219F
:101580001160B0F5803F03D0B0F5802F0ED106E09A
:10159000C649096841F48031C44A116007E0C34973
:1015A000096841F4A021C14A116000E000BF00BFFA
:1015B000704710B501460022002300204A11012A7D
:1015C00002D1BA4C236806E0022A02D1B74C236A42
:1015D00001E0B64C636A01F01F02012494401C40F4
:1015E0000CB1012000E0002010BD38B500200090B3
:1015F0000024002500BF3120FFF7DBFF05460098DF
:10160000401C00900098B0F5A06F01D0002DF2D0E2
:101610003120FFF7CEFF08B1012400E0002420466E
:1016200038BD01460020A14A106820F0F80040EAC9
:10163000C10010607047A049086070470246002052
:101640009A4B586820F47C1042EA01031843974BE8
:101650005860704798490866704701460020934AD1
:10166000506820F003000843506070478F4840687E
:1016700000F00C007047014600208C4A506820F0B2
:10168000F00008435060704701460020874A5068C8
:1016900020F4E06008435060704701460020834A10
:1016A000506820F4605040EAC1005060704729B192
:1016B0007E4A527A02437D4B5A7204E07B4A527A48
:1016C00082437A4B5A7270477B49D8310860704721
:1016D00001460020754A506820F44040084350609D
:1016E00070470021714A20321170704A82F8201030
:1016F000012802D004280AD104E001216B4A2032DB
:10170000117005E00521694A2032117000E000BF28
:1017100000BF70476949086070476449096A01431E
:10172000624A11627047654944390860704730B5B4
:1017300000210022002400235C4D6D6805F00C019F
:1017400021B1042905D0082923D105E05C4D0560AD
:1017500022E05B4D05601FE0544D6D6805F470128A
:10176000524D6D6805F48034022505EB92421CB998
:10177000544D554305600BE04C4D6D6805F4003544
:101780001DB1504D5543056002E04D4D5543056078
:1017900002E04B4D056000BF00BF444D6D6805F091
:1017A000F0010909484D6B5C0568DD4045603F4D1F
:1017B0006D6805F4E061090A434D6B5C4568DD40E6
:1017C00085603A4D6D6805F46051C90A3E4D6B5C09
:1017D0004568DD40C560354D6D6805F44041890BB5
:1017E0003A4D6B5CC568B5FBF3F5056130BD29B1B9
:1017F0002E4A526902432D4B5A6104E02B4A52692A
:1018000082432A4B5A61704729B1284A92690243A0
:10181000264B9A6104E0254A92698243234B9A61E0
:10182000704729B1214AD2690243204BDA6104E0B2
:101830001E4AD26982431D4BDA61704729B11B4AA7
:10184000D2680243194BDA6004E0184AD268824336
:10185000164BDA60704729B1144A12690243134BE0
:101860001A6104E0114A12698243104B1A617047F1
:1018700012494039086070470F49C86470470B49E6
:10188000C87170470948406A40F080700749486253
:10189000704701460020054A92680A400AB10120BB
:1018A00000E0002070470149887270470010024034
:1018B0000000FFF8FFFFF6FE0000424280044242B3
:1018C00000127A0000093D004E0000205E0000205A
:1018D000704700000FB4044910B503AA029800F045
:1018E00013F910BC5DF814FB480000202DE9F0410D
:1018F0000E460446002020622046E168884730B347
:10190000252805D0D4E901219047206A401CF2E740
:10191000E168204600278847050018D0A5F141005E
:10192000192802D820354FF4006732462946204650
:101930002760FEF737FC40B1012804D0F61D26F0E1
:1019400007060836D8E7361DD6E72846DAE7206AC4
:10195000BDE8F08170B50C460546012A05D028780F
:10196000800600D5EA69002302E0012305E05B1C44
:10197000934202D2E05C0028F9D1A869E618C01AA7
:10198000A861286A184428622846AFF3008004E062
:10199000D5E9012114F8010B9047B442F8D3284649
:1019A000AFF3008070BD00002DE9F0410646002431
:1019B00010687529314616A510D0AFF300800028B5
:1019C00002DA404213A507E031688A0701D512A563
:1019D00002E0490704D511A5012401E0AFF300801E
:1019E00000210A2206F1240709E0B0FBF2FCB0FB5B
:1019F000F2F302FB1C00303078541846491C0028D2
:101A0000F3D123462A463046BDE8F04100F00CB839
:101A1000000000002D0000002B000000200000004E
:101A200070477047704770472DE9F0470D4699465B
:101A30009246044600F124080168880604D5E0694E
:101A400021F01001216000E00120A84201DD471BC8
:101A500000E00027A1697A1902EB0900081AA061C9
:101A60002078C00602D42046AFF30080002608E0AC
:101A7000D4E901211AF806009047206A401C761C20
:101A800020624E45F4DB2078C0060AD52046AFF32D
:101A9000008006E0D4E9012130209047206A401CF4
:101AA0002062381EA7F10107F4DC07E0D4E9012128
:101AB00018F805009047206A401C2062281EA5F1F6
:101AC0000105F3DC2046AFF300802078000602D544
:101AD0000220BDE8F0870120FBE710B5436913B190
:101AE000AFF3008001E0FFF735FF012010BD127851
:101AF00000F124010A7000224A700122EDE711680A
:101B00004FF0FF32E9E70000074B70B50D467B440C
:101B100000F011F80446284600F020F810B14FF00C
:101B2000FF3070BD204670BD69EEFFFF01694A1CA1
:101B300002610878704700B58FB0CDE9013100210E
:101B4000059105497944CDE9031011466846FFF730
:101B5000CDFE0FB000BD0000E5FFFFFF007B00F0F1
:101B600080007047754600F029F8AE4605006946CA
:101B7000534620F00700854618B020B5FEF77AFFDF
:101B8000BDE820404FF000064FF000074FF000087E
:101B90004FF0000B21F00701AC46ACE8C009ACE8FF
:101BA000C009ACE8C009ACE8C0098D4670470446DE
:101BB000AFF300802046FEF70AFB000000487047A4
:101BC00014010020E41B0008000000206400000055
:101BD0006C010008481C0008640000201407000085
:101BE0008801000800A24A04000000000000000074
:101BF00001020304060708090000000000000000BD
:101C000000000000000000000000000000000000D4
:101C100000000000000000000000000000000000C4
:101C200000000000000000000000000000000000B4
:101C30000000000000000102030401020304060783
:081C4000080902040608000077
:0400000508000131BD
:00000001FF
